:0200000460009A
:10000000464346420004015600000000010303007D
:1000100000000000000000000000000000000000E0
:1000200000000000000000000000000000000000D0
:1000300000000000000000000000000000000000C0
:1000400000000000000406000000000000000000A6
:100050000000800000000000000000000000000020
:100060000000000000000000000000000000000090
:100070000000000000000000000000000000000080
:10008000EB04180A063204260000000000000000FD
:100090000000000000000000000000000000000060
:1000A0000000000000000000000000000000000050
:1000B0000000000000000000000000000000000040
:1000C0000000000000000000000000000000000030
:1000D0000000000000000000000000000000000020
:1000E0000000000000000000000000000000000010
:1000F0000000000000000000000000000000000000
:1001000000000000000000000000000000000000EF
:1001100000000000000000000000000000000000DF
:1001200000000000000000000000000000000000CF
:1001300000000000000000000000000000000000BF
:1001400000000000000000000000000000000000AF
:10015000000000000000000000000000000000009F
:10016000000000000000000000000000000000008F
:10017000000000000000000000000000000000007F
:10018000000000000000000000000000000000006F
:10019000000000000000000000000000000000005F
:1001A000000000000000000000000000000000004F
:1001B000000000000000000000000000000000003F
:1001C000000100000010000000000000000000001E
:1001D000000001000000000000000000000000001E
:1001E000000000000000000000000000000000000F
:1001F00000000000000000000000000000000000FF
:10020000FFFFFFFFFFFFFFFFFFFFFFFFFFFFFFFFFE
:10021000FFFFFFFFFFFFFFFFFFFFFFFFFFFFFFFFEE
:10100000D10020410020006000000000000000002E
:1010100020100060001000600000000000000000D0
:10102000000000600000800000000000FFFFFFFFE4
:10103000FFFFFFFFFFFFFFFFFFFFFFFFFFFFFFFFC0
:10104000FFFFFFFFFFFFFFFFFFFFFFFFFFFFFFFFB0
:10105000FFFFFFFFFFFFFFFFFFFFFFFFFFFFFFFFA0
:10106000FFFFFFFFFFFFFFFFFFFFFFFFFFFFFFFF90
:1020000000000120DD22006065230060FBDE00602F
:10201000692300606B2300606D23006000000000F6
:102020000000000000000000000000006F230060BE
:1020300071230060000000007323006075230060BE
:1020400081DA006089DA006091DA006099DA006074
:10205000A1DA0060A9DA0060B1DA0060B9DA0060E4
:10206000C1DA0060C9DA0060D1DA0060D9DA006054
:10207000E1DA0060E9DA0060F1DA0060F9DA0060C4
:1020800001DB006009DB006011DB006019DB006030
:1020900021DB006005A7006029DB006031DB006008
:1020A00039DB006041DB006049DB006051DB006030
:1020B00059DB006061DB006069DB006071DB0060A0
:1020C00079DB006081DB006089DB006091DB006010
:1020D00099DB0060A1DB0060A9DB0060B1DB006080
:1020E000B9DB0060C1DB0060C9DB0060D1DB0060F0
:1020F000D9DB0060E1DB0060E9DB0060F1DB006060
:10210000F9DB006001DC006009DC006011DC0060CC
:1021100019DC006021DC006029DC006031DC00603B
:1021200039DC006041DC006049DC006051DC0060AB
:1021300059DC006061DC006069DC006071DC00601B
:1021400079DC006081DC006089DC006091DC00608B
:1021500099DC0060A1DC0060A9DC0060B1DC0060FB
:10216000B9DC0060C1DC0060C9DC0060D1DC00606B
:10217000D9DC0060E1DC0060E9DC0060F1DC0060DB
:10218000F9DC006001DD006009DD006011DD006048
:1021900019DD006021DD006029DD006031DD0060B7
:1021A00039DD006041DD006049DD006051DD006027
:1021B00059DD006061DD006069DD006071DD006097
:1021C00079DD006081DD006089DD006091DD006007
:1021D00099DD0060919E0060A1DD0060A9DD0060D6
:1021E000B1DD0060B9DD0060C1DD0060C9DD006007
:1021F000D1DD0060D9DD0060E1DD0060E9DD006077
:10220000F1DD006071A90060F9DD006001DE0060B1
:1022100009DE006011DE006019DE006021DE006072
:1022200029DE006031DE006039DE006041DE0060E2
:1022300049DE006051DE006059DE006061DE006052
:1022400069DE006071DE006079DE006081DE0060C2
:1022500089DE006091DE006099DE0060A1DE006032
:10226000A9DE0060B1DE0060B9DE0060C1DE0060A2
:10227000C9DE0060D1DE0060C40101600000002002
:10228000EC010000C401016000000000000000003B
:10229000C40101600000202000000000C4010160B2
:1022A0000000008000000000C40101600000E08127
:1022B0000000000000080020B40D00000000000035
:1022C000000000000000202000000000000000804E
:1022D000000000000000E0810000000010B572B6B0
:1022E000104B83F3088805F043FB0F4B07E003F125
:1022F0000C049A685968186800F01CF823460B4AC9
:102300009342F4D306E01C46596854F8080B00F0D9
:1023100020F82346064A9342F5D362B60CF008FB38
:10232000FEE700BF0000012078220060B4220060B8
:10233000DC220060002393420AD210B450F8044B10
:1023400041F8044B04339342F8D35DF8044B7047D3
:10235000704700238B4204D2002240F8042B043340
:10236000F8E77047FEE7FEE7FEE7FEE7FEE7FEE779
:10237000FEE7FEE7FEE7FEE72DE9B04F94B000AFC1
:1023800078613961BB601346FB730023FB627B6994
:102390001B6EDB0E03F007037F4AD35C1A46BB6853
:1023A000B3FBF2F3BB624FF0FF33FB63FF233B64ED
:1023B000FB7B032B44D176A3D3E90023C7E90C238D
:1023C000D7E90C2312EB020A43EB030BC7E90CAB72
:1023D000BB6A1A464FF00003D7E90C010CF0BBFCB6
:1023E00002460B46C7E90C2369A3D3E90023C7E9DA
:1023F0001223D7E912AB52465B464FF000004FF074
:102400000001190241EA1261100202460B4612EB6A
:102410000A01396043EB0B037B60D7E90023C7E96E
:102420001223BB6A1A464FF00003D7E912010CF0E1
:1024300092FC02460B46C7E912230123FB622FE000
:1024400053A3D3E90023C7E90C23BB6A1A464FF014
:102450000003D7E90C010CF07EFC02460B46C7E9ED
:102460000C234BA3D3E90023C7E91223D7E91201B8
:102470004FF000024FF000030B0243EA1063020228
:10248000C7E91223BB6A1A464FF00003D7E91201CD
:102490000CF061FC02460B46C7E912230023FB62E5
:1024A0003B691A464FF00003D7E90C01994208BF77
:1024B000904207D3FB7B1A460021786904F02AFB7F
:1024C0003B6B5FE000237B6450E0FB6B002B51D043
:1024D0002FA3D3E90023C7E908237B6C18464FF0EC
:1024E0000001FB6A1A464FF0000310EB020841EBB3
:1024F000030918F1010449F100057B6A04FB03F2AA
:102500003B6A05FB03F3D1183B6AA3FB0423194480
:102510000B46C7E90823C7E90823BB6A1A464FF0F0
:102520000003D7E908010CF016FC02460B46C7E988
:1025300008233B691A464FF00003D7E90801994286
:1025400008BF90420FD33A6A3B69D31AFB61FA6B1A
:10255000FB699A4207D9FB69FB637B6C3B64D7E953
:102560000823C7E912237B6C01337B647B6CFF2B50
:10257000ABD900E000BFFB7B1A46396C786904F0E8
:10258000C9FABB6C18465037BD46BDE8B08F00BFD6
:1025900000CA9A3B0000000004F4006080B48BB0D5
:1025A00000AF0346FB710023FB6100233B62002365
:1025B0003B61304B7B610023BB602E4BFB60FB79A2
:1025C000012B01D800234FE0FB79022B02D0FB79CD
:1025D000032B03D1FB79023BFB7112E0FB79062B45
:1025E00002D0FB79072B03D1FB79063BFB7108E096
:1025F000FB790A2B02D0FB790B2B02D1FB790A3B2A
:10260000FB7100237B621BE07B6A9B0007F12802C1
:10261000134453F8183C002B0FD03A6A531C3B620A
:102620007B6A9B0007F128010B4453F8181C9300A8
:1026300007F12802134443F8201C7B6A01337B62B4
:102640007B6A012BE0D9FB793A6A9A4201D20023D6
:102650000AE0FB799B0007F12802134453F8203C61
:10266000BB61BB69FB61FB6918462C37BD465DF851
:10267000047B704700900D4080B586B000AF0346E4
:10268000B9607A60FB73FB7B1846FFF787FF7861C0
:102690007B69002B01D101234AE02749FB7B9A1E6D
:1026A00013465B0013445B010B4403F5DA734FF4EC
:1026B000C0121A607B691B6B43F480427B691A630A
:1026C0007B691B6B43F400427B691A637B690022C0
:1026D0001A60FB7B0A2B08D0FB7B0B2B05D0FB7B06
:1026E000062B02D0FB7B072B07D17B694FF400221E
:1026F0005A637B694FF480125A637B68002B16D0B3
:102700007B691A690D4B13407A68127802F00F0149
:102710007A685278120402F4702211437A6892782F
:10272000120202F470620A431A437B691A610023A1
:1027300018461837BD4680BD00800D40F0F0F0FF10
:1027400080B588B000AF78600B46FB701346BB7055
:10275000FB785A00BB781344BB610023BB600023A5
:10276000FB607A68BB6904339B0013445B6823F009
:102770001F03FB61A2E0BB68002B0CD1FB699B68C7
:102780007B617A69524B1340FA69928BC2F30B0258
:1027900092B21343BB60FB695B68DBB25BB2002B98
:1027A00003DA4FF0FF33FB600DE0FB69DB69C3F335
:1027B00012331A46FB695B68C3F30E439BB2D21A0D
:1027C000FB681344FB607A68BB6904339B001344C5
:1027D0005A687968BB690C339B000B445B689A426A
:1027E0001CD17A68BB6904339B00134400225A60F1
:1027F0007A68BB690C339B00134400225A607B68E3
:102800009A68BB699B01134401229A607B689A68AD
:10281000BB699B0113440022DA600DE07A68BB6952
:1028200004339B0013445B681B6819467A68BB69D4
:1028300004339B0013445960FB695B68C3F3C033E6
:10284000DBB2002B09D17A68BB6904339B001344C7
:102850005B6823F01F03002B14D1BB78DB01DAB2D5
:10286000FB781343DBB23B7400237B747B681B68EB
:1028700007F10802114618460AF03FFD0023BB602D
:102880000023FB60FB6900225A607B681B691A46C3
:10289000FB691A607B68FA691A617B6893F85430A7
:1028A0000133DAB27B6883F854207A68BB69043359
:1028B0009B0013445B6823F01F03FB61FB69002B43
:1028C0007FF459AF00BF00BF2037BD4680BD00BFB9
:1028D00000F0FFFF80B58CB000AF78607B685B686C
:1028E000D3F8AC317B627B6A002B50D0002387F891
:1028F0002B3048E097F82B307A6A22FA03F303F082
:102900000103002B3AD07B689A6897F82B305B0064
:10291000DBB29B01134430333B623B6AFB61FB69D2
:102920001B78DB0987F82A3097F82A2097F82B3094
:1029300019467868FFF704FF97F82A3083F00103FF
:10294000DAB297F82B3019467868FFF7F9FE97F856
:102950002B303B74FB69BB600823FB6001237B7455
:1029600097F82B301946786809F0C4FE7B681B681D
:1029700007F10802114618460AF0BFFC97F82B3001
:10298000013387F82B3097F82B30032BB2D97B68B3
:102990005B68D3F8BC317B627B685B687A6AC3F89A
:1029A000BC217B6A002B00F0A681002387F8293028
:1029B0009CE197F829307A6A22FA03F303F00103C5
:1029C000002B00F08E8197F829300F2B08D997F84B
:1029D0002930103B87F82B30012387F82A3006E096
:1029E00097F8293087F82B30002387F82A3097F89A
:1029F0002B30032B00F2728197F82B305B00DAB298
:102A000097F82A301344FB760023BB600023FB6059
:102A100097F82B30002B23D197F82A30012B1FD1A8
:102A20007B689A68FB7E9B01134493F8383003F06F
:102A30000203DBB2002B13D07B689A68FB7E9B01FC
:102A400013441B68C3F34073DBB2002B08D17B68CF
:102A50009A68FB7E9B011A44136843F0005313608D
:102A6000FB7E7A6804339B0013445B6823F01F03EA
:102A7000FB622EE1002387F82830FB7E7A6804335E
:102A80009B0013445B6823F01F03FB6222E0FB6A98
:102A90005B68DBB25BB2002B06DBFB6A5B68C3F3EF
:102AA000C033DBB2002B10D0FB6A5B68DBB25BB2D9
:102AB000002B13DBFB6A5B68C3F3C033DBB2002B74
:102AC0000CD0012387F8283008E0FB6A1B6823F04C
:102AD0001F03FB62FB6A002BD9D100E000BF97F80F
:102AE0002830002B03D1FB6A002B40F0F980FB7EDD
:102AF0007A6804339B0013445B6823F01F03FB6276
:102B0000E3E0FB6A5B68DBB25BB2002B00DAE0E07B
:102B1000BB68002B0AD1FB6A9A68794B1340FA6AAA
:102B2000928BC2F30B0292B21343BB60FB6ADB6968
:102B3000C3F312331A46FB6A5B68C3F30E439BB2BE
:102B4000D21AFB681344FB60FB7E7A6804339B0057
:102B500013445A68FB7E79680C339B000B445B6816
:102B60009A421CD1FB7E7A6804339B0013440022F6
:102B70005A60FB7E7A680C339B00134400225A6033
:102B80007B689A68FB7E9B01134401229A607B68F4
:102B90009A68FB7E9B0113440022DA600DE0FB7E05
:102BA0007A6804339B0013445B681A68FB7E114605
:102BB0007A6804339B0013445960FB6A5B68C3F373
:102BC000C033DBB2002B09D1FB7E7A6804339B0053
:102BD00013445B6823F01F03002B16D197F82A30AB
:102BE000DB01DAB297F82B301343DBB23B740023DE
:102BF0007B747B681B6807F10802114618460AF0CF
:102C00007CFB0023BB600023FB60FB6A00225A6050
:102C10007B681B691A46FB6A1A607B68FA6A1A614C
:102C20007B6893F854300133DAB27B6883F8542020
:102C3000FB7E7A6804339B0013445B6823F01F0318
:102C4000FB62FB6A002B40D0FB6A5B68DBB25BB2C5
:102C5000002B3ADA97F82B2097F82A301B011344FF
:102C6000012202FA03F37B617B685B687A69C3F82F
:102C7000B0217B685B68D3F8B8217B691340002BD7
:102C800023D100BF7B685B68D3F8B0217B69134018
:102C9000002BF7D17B685B68D3F8B8217B691340C0
:102CA000002B12D17B689A68FB7E9B011344FA6A61
:102CB0009A607B689A68FB7E9B0113440022DA606D
:102CC0007B685B687A69C3F8B021FB6A002B7FF4EC
:102CD00018AFFB6A002B7FF4CDAE02E000BF00E02E
:102CE00000BF97F82930013387F8293097F8293049
:102CF0001F2B7FF65EAE00BF3037BD4680BD00BFE4
:102D000000F0FFFF80B592B000AFF8607A603B60E2
:102D10000B46FB72FB7A5B0003F01E03FA7AD209C2
:102D2000D2B21343BB62FB7A03F00F02FB7ADB08DB
:102D300003F010031343012202FA03F37B627B6A60
:102D40003B640023BB633A6843F6FF7313449B0B59
:102D50007B63002387F83330012387F83230002368
:102D6000FB62FB68002B01D103239FE1FB689A689B
:102D7000BB6A9B01134493F8383003F00103DBB2C4
:102D8000002B01D1012391E1FB6893F85630002B11
:102D900001D001238AE17B6B002B01D101237B63EE
:102DA00007F1100318460BF0D7FBFB6893F854307B
:102DB0001A467B6B934205D93B6918460BF0D9FB49
:102DC000022373E13B68B3F5804F03D94FF480438E
:102DD000FB6301E03B68FB633A68FB6BD31A3B6023
:102DE000FB681B693B623B6A1B681A46FB681A61F9
:102DF000FB6893F85430013BDAB2FB6883F8542047
:102E0000BB6B002B01D13B6A7B643B6A01221A60D9
:102E10003B6A00225A607A68BB6B13441A463B6ACD
:102E20009A603B6A9B6803F58052A24B13403A6A52
:102E3000D3603B6ADB6803F580523B6A1A613B6AE8
:102E40001B6903F580523B6A5A613B6A5B6903F573
:102E500080523B6A9A61FB6BC3F30E0399B23A6AE4
:102E6000536861F31E435360FB6BC3F312013A6A6C
:102E7000D36961F31E33D3613B6A9B68C3F30B03D1
:102E800099B23A6A938B61F30B0393833A6AD37FC7
:102E90006FF3C713D3773B68002B04D13A6A5368AA
:102EA00043F4004353603A6A5368802161F3070397
:102EB0005360BA6BFB6B1344BB63FA68BB6A0C3399
:102EC0009B0013445B68002B0FD0FA68BB6A0C337D
:102ED0009B0013445B683A6A1A60FA68BB6A0C3359
:102EE0009B0013443A6A5A6010E0FA68BB6A0433E4
:102EF0009B0013443A6A5A60FA68BB6A0C339B0021
:102F000013443A6A5A60012387F833303B68002B38
:102F10007FF458AFFB7A03F00F03002B43D1FB7A09
:102F2000DB09DBB2012B3ED1FB7A03F00F03DBB2EE
:102F30005B00FB77FB689A68FB7F9B01134430338F
:102F4000BB61BB697B61FB689A68BB6A9B011344E8
:102F500093F8383003F00203DBB2002B23D0FB6B75
:102F6000002B20D07B69DB881A46FB6B93421AD278
:102F7000FB689A68BB6A9B0113441B68C3F30A434E
:102F80009BB21A46FB6BB3FBF2F102FB01F29B1AF8
:102F9000002B08D1FB689A68BB6A9B011A4413682E
:102FA0006FF35D73136097F83330002B35D1FB68F6
:102FB0005B68D3F8B0217B6A1340002B1FD03B69BC
:102FC00018460BF0D6FA002370E0FB685B68D3F874
:102FD0004021FB685B6842F48042C3F84021FB68F3
:102FE0005B68D3F8B8313B64FB685B68D3F8403169
:102FF00003F48043002B02D0002387F8323097F887
:103000003230002BE1D1FB685B68D3F84021FB68CC
:103010005B6822F48042C3F8402197F83330002BDC
:1030200004D13A6C7B6A1340002B3AD1FB689A6852
:10303000BB6A9B0113447A6C9A60FB689A68BB6A0E
:103040009B0113440022DA60BFF34F8F00BFFB687F
:103050005B687A6AC3F8B02119E0FB6A0133FB624E
:10306000FB6A154A934205D13B6918460BF081FA79
:1030700001231BE0FB685B68D3F8BC217B6A13402B
:10308000002B0DD1FB685B687A6AC3F8B021FB683E
:103090005B68D3F8B8217B6A1340002BDDD000E0D9
:1030A00000BF3B6918460BF064FA00231846483706
:1030B000BD4680BD00F0FFFF8096980080B485B0CB
:1030C00000AF78600023FB7315E0FB7B0F4AD35CF5
:1030D000002B0DD1FB7B0D4A0121D1547B68FA7B7B
:1030E0001A70FB7B5C2202FB03F3094A134406E0DF
:1030F000FB7B0133FB73FB7B002BE6D000231846E0
:103100001437BD465DF8047B704700BFD40E002025
:10311000780E002080B588B000AF0346B9607A60B1
:10312000FB730023FB613C4B7B61FB7B012B02D9D2
:10313000FB7B022B01D006236AE007F1130318463C
:10314000FFF7BCFFF861FB69002B01D103235FE0AF
:10315000FB7C5B02314A1A44FB69DA60FB7CDB02D0
:103160002F4A1344BB61FB69BA699A60FB69FA7B19
:1031700083F85720FB7B023B9B0007F1200213449E
:1031800053F80C3C1A46FB695A60FB695B68D3F83C
:103190004021FB695B6842F00202C3F8402100BF96
:1031A000FB695B68D3F8403103F00203002BF7D1D1
:1031B000FB695B68D3F82431DBB203F01F03DAB29A
:1031C000FB6983F85520FB6993F85530032B01D830
:1031D00001231DE0FB69BA681A60FB695B68D3F8DC
:1031E000A821FB695B6822F00302C3F8A821FB69F0
:1031F0005B68D3F8A821FB695B6842F00202C3F860
:10320000A821F86908F08EFF7B68FA691A6000232C
:1032100018462037BD4680BD00002E40000C00201F
:103220000008002080B485B000AF78607B68BB6088
:103230007B68002B01D103232FE00023FB730FE0F9
:10324000FB7B5C2202FB03F3174A1344BA689A42E1
:1032500003D1FB7B154A0021D154FB7B0133FB7367
:10326000FB7B002BECD0BB685B680022C3F84821D5
:10327000BB685B68D3F84021BB685B6822F0010241
:10328000C3F84021BB685B68D3F84021BB685B682A
:1032900042F00202C3F84021002318461437BD460D
:1032A0005DF8047B704700BF780E0020D40E00202C
:1032B00080B58CB000AF78600B46FB707B687B629A
:1032C000FB7803F00F02FB78DB0803F010031343D5
:1032D000012202FA03F33B62FB785B00DBB203F0EE
:1032E0001E03DAB2FB78DB09DBB21343FB77002362
:1032F00087F82B307B68002B01D10323EAE007F12C
:103300000C0318460BF028F900233B614FF0FF3304
:103310007B61FB7F7A6A04339B0013445B6823F074
:103320001F03FB6209E0FA6AD37F43F08003D3777F
:10333000FB6A1B6823F01F03FB62FB6A002BF2D1C0
:10334000FB7F7A6A04339B0013445B6823F01F03FE
:10335000FB6291E0FB6ADB7F23F07F03DBB2002B93
:1033600000F08F80FB6A5B68DBB25BB2002B1ADA7D
:103370007B6A5B68D3F8B4117B6A5B683A6A0A437C
:10338000C3F8B42100BF7B6A5B68D3F8B4213B6A01
:103390001340002BF7D17B6A5B68D3F8B8213B6AF6
:1033A0001340002BE4D13B69002B0AD1FB6A9A68D9
:1033B0004A4B1340FA6A928BC2F30B0292B2134348
:1033C0003B61FB7F7A6A04339B0013445A68FB7F9E
:1033D000796A0C339B000B445B689A420ED1FB7FE9
:1033E0007A6A04339B00134400225A60FB7F7A6A96
:1033F0000C339B00134400225A600DE0FB7F7A6A75
:1034000004339B0013445B681A68FB7F11467A6A99
:1034100004339B0013445960FB6A5B68C3F3C033F9
:10342000DBB2002B09D1FB7F7A6A04339B00134483
:103430005B6823F01F03002B02D1012387F82B3098
:10344000FB6A00225A607B6A1B691A46FB6A1A6093
:103450007B6AFA6A1A617B6A93F854300133DAB2F4
:103460007B6A83F85420FB7F7A6A04339B00134401
:103470005B6823F01F03FB62FB6A002B7FF46AAFDB
:1034800000E000BFFB6A002B0DD17B6A9A68FB7FCE
:103490009B01134401229A607B6A9A68FB7F9B011F
:1034A00013440022DA60FB6818460BF062F897F8C4
:1034B0002B30002B0DD0FB783B7600237B767B6A8C
:1034C0001B6807F110021146184609F016FF002389
:1034D0003B61002318463037BD4680BD00F0FFFF3A
:1034E00080B58AB000AFF8600B467A60FB72FB686B
:1034F0003B62012387F82730FB68002B01D10323AF
:1035000036E1FB7A142B00F2208101A252F823F05D
:1035100065350060813500609D350060B53500601F
:10352000D5350060F5350060153600602F36006037
:10353000E13600604B3700604B3700604B3700606E
:103540004B3700604B370060E93600602F37006072
:103550004B3700604B3700604B3700604B370060E3
:10356000BD3600603B6A5B68D3F840213B6A5B680C
:1035700042F00102C3F84021002387F82730F5E02C
:103580003B6A5B68D3F840213B6A5B6822F001022A
:10359000C3F84021002387F82730E7E07B68002B41
:1035A00000F0D5807968386A08F055FE034687F840
:1035B0002730CCE07B68002B00F0CB807B68FB6180
:1035C000FB691B781946386A08F047FF034687F8FD
:1035D0002730BEE07B68002B00F0BD807B68FB617C
:1035E000FB691B781946386A08F0B2FF034687F872
:1035F0002730B0E07B68002B00F0AF807B68FB6178
:10360000FB691B781946386A09F017F8034687F8F2
:103610002730A2E07B68002B00F0A1807B683B6133
:103620003B6901221A80002387F8273097E07B68E6
:10363000002B00F096807B68BB61BB691B7803F0B0
:103640000F03FB75BB691B78DB09BB75FB7D032B87
:1036500000F28780FB7D002B18D03B6A5A68FB7D07
:10366000013B70339B0013445B68BA7D002A02D093
:103670004FF4803200E001221340002B14BF0123DD
:103680000023DBB29AB2BB695A8013E03B6A5B68E5
:10369000D3F8C031BA7D002A02D04FF4803200E066
:1036A00001221340002B14BF01230023DBB29AB286
:1036B000BB695A80002387F8273052E07B68002BD3
:1036C00051D07B68FB61FB691B785A063B6A5B68DB
:1036D00042F08072C3F85421002387F8273042E07B
:1036E000002387F8273041E0002387F8263013E0D5
:1036F00097F8263063F07F03DBB21946386A08F08A
:10370000ACFE97F826301946386A08F0A6FE97F8FE
:103710002630013387F8263097F82630032BE7D977
:10372000386A08F0FFFC002387F827301EE07B682A
:10373000002B1AD07B68FB613B6A93F85820FB6929
:103740001A70002387F827300FE000BF0EE000BF9B
:103750000CE000BF0AE000BF08E000BF06E000BFC9
:1037600004E000BF02E000BF00E000BF97F8273090
:1037700018462837BD4680BD90B5A7B002AFF860A7
:10378000B9607A600023BB6700237B67052387F855
:103790008F30002387F87330BB685B68B3F1FF3F5D
:1037A00002D07B68002B02D197F88F30A0E17B68B4
:1037B000C7F88830D7F888309B68C7F88430D7F8C6
:1037C0008430C7F8803007F173031A460621F86881
:1037D00000F05AFABB681B7A002B00F01581BB6819
:1037E0005B68082B03D1BB681B68002B02D197F8DC
:1037F0008F307DE1BB681B68C7F88430D7F8843010
:10380000FB67FB6F5A88D7F880305A80FB6F9A8825
:10381000D7F880309A80FB6FDA88D7F88030DA806A
:10382000FB6F5A78D7F880305A70FB6F1A78D7F848
:1038300080301A70D7F880301B7803F06003002BBB
:1038400023D1D7F880305B780C2B00F2CB80D7F8EF
:1038500080305B781A46A84B53F82230002B00F0DA
:10386000C180D7F880305B781A46A34B53F82240CA
:1038700007F1740307F17802D7F88010D7F88800B1
:10388000A047034687F88F30ACE0D7F88030DB885C
:10389000002B64D0D7F880301B785BB2002B5EDB46
:1038A000D7F88030DB88002B21D0D7F880301B7808
:1038B00003F02003002B1AD000237B66012387F836
:1038C0006C30D7F880303B66D7F88030DB88BB6639
:1038D00007F160031A460121F86801F0B7F90346C1
:1038E00087F88F30BB6E7B677B6EBB6725E0D7F8B0
:1038F0008030DB88002B20D0D7F880301B7803F095
:103900004003002B19D000237B65012387F85C302E
:10391000D7F880303B65D7F88030DB88BB6507F18E
:1039200050031A461321F8680AF07BF8034687F81B
:103930008F30BB6D7B677B6DBB6797F88F30002B3B
:1039400050D1BA6FD7F88030DB880021F86809F0D1
:10395000F1FD034687F88F3097F88F30C8E0D7F82D
:1039600080301B7803F02003002B1AD000237B64E7
:10397000012387F84C30D7F880303B64D7F880308B
:10398000DB88BB6407F140031A460121F86801F0A7
:103990005DF9034687F88F30BB6C7B677B6CBB6738
:1039A00020E0D7F880301B7803F04003002B19D0BB
:1039B00000237B63012387F83C30D7F880303B63DA
:1039C000D7F88030DB88BB6307F130031A46132138
:1039D000F8680AF026F8034687F88F30BB6B7B67E0
:1039E0007B6BBB6797F88F2007F17403019307F196
:1039F000780300930023D7F88010F86809F096FA4E
:103A0000034687F88F3071E097F87330032B13D19A
:103A1000D7F880305B781A46374B53F8224007F1CD
:103A2000740307F17802D7F88010D7F88800A04710
:103A3000034687F88F3059E0BB685B68002B55D090
:103A4000D7F88030DB88002B50D0D7F880301B7837
:103A50005BB2002B4ADBD7F880301B7803F02003E1
:103A6000002B16D0BB681B687B62002387F82C30C4
:103A7000D7F880303B62BB685B68BB6207F120030C
:103A80001A460121F86801F0E1F8034687F88F3003
:103A90001BE0D7F880301B7803F04003002B14D0D4
:103AA000BB681B687B6100233B77D7F880303B61A4
:103AB000BB685B68BB6107F110031A461321F86805
:103AC00009F0AFFF034687F88F3097F88F2007F192
:103AD0007403019307F1780300930123D7F8801052
:103AE000F86809F023FA034687F88F3097F88F308B
:103AF00018469437BD4690BD54EF006080B588B03D
:103B000000AF786039601B4BFB603B683B61012371
:103B10003B770023FB7600237B778023BB76402313
:103B20003B8307F10C0207F118031946786809F086
:103B300017FD0346FB77FB7F002B01D0FB7F15E0D1
:103B40000023BB7607F10C0207F1180319467868C9
:103B500009F006FD0346FB77FB7F002B05D0802193
:103B6000786809F05CFDFB7F00E0002318462037F1
:103B7000BD4680BD7937006080B584B000AF034694
:103B80003960FB7107F1080318460AF0E5FC0023D1
:103B9000FB601FE02C49FA6813461B019B1ADB00EF
:103BA0000B4408331B68002B11D02749FA681346D1
:103BB0001B019B1ADB000B4475331B78FA799A4280
:103BC00005D1BB6818460AF0D4FC012337E0FB6836
:103BD0000133FB60FB68002BDCD00023FB6026E098
:103BE0001949FA6813461B019B1ADB000B44083382
:103BF0001B68002B18D11449FA6813461B019B1A45
:103C0000DB000B447533FA791A70FA6813461B010E
:103C10009B1ADB000C4A1A443B681A60BB681846C2
:103C20000AF0A7FC00230AE0FB680133FB60FB6895
:103C3000002BD5D0BB6818460AF09BFC022318461F
:103C40001037BD4680BD00BF000E002080B485B097
:103C500000AF03463960FB710623FB73FB79BB732E
:103C6000BB7B022B02D0BB7B032B04D13B68054AF4
:103C70001A600023FB73FB7B18461437BD465DF8C2
:103C8000047B704788EF006080B586B000AFF860B5
:103C90000B467A60FB720123FB757B68002B01D118
:103CA000042353E0FB7A023B062B4DD801A252F8C5
:103CB00023F000BFD13C0060E13C0060193D006092
:103CC000293D0060F13C0060053D0060393D006029
:103CD0007A680F21F86809F01FFA0346FB7534E093
:103CE0007A681021F86809F017FA0346FB752CE092
:103CF0007B683B610023FB75FB6893F876203B698A
:103D00001A7022E07B683B610023FB75FB6893F827
:103D100074203B691A7018E07A680621F86809F087
:103D2000FBF90346FB7510E07A680721F86809F093
:103D3000F3F90346FB7508E07A680921F86809F091
:103D4000EBF90346FB7500E000BFFB7D1846183712
:103D5000BD4680BD80B586B000AFF8600B467A6086
:103D6000FB720123FB75FB7A033B0B2B74D801A27A
:103D700052F823F0A53D0060593E0060593E0060B6
:103D8000B53D0060CB3D0060593E0060593E00608B
:103D9000393E0060493E0060193E0060593E0060B7
:103DA000293E00607A681121F86809F0B5F90346E8
:103DB000FB7556E07B68002B50D00023FB757B68B9
:103DC0001A78FB6883F8762048E0FB6893F8763031
:103DD000032B17D07B68002B42D00023FB757B6838
:103DE0001A78FB6883F87420FB68032283F8762036
:103DF000FB6874331A461421F86809F08DF90346FC
:103E0000FB752DE0FB6874331A460821F86809F049
:103E100083F90346FB7523E07A680A21F86809F004
:103E20007BF90346FB751CE07A680B21F86809F002
:103E300073F90346FB7514E07A680C21F86809F001
:103E40006BF90346FB750CE07A680D21F86809F000
:103E500063F90346FB7504E000BF02E000BF00E029
:103E600000BFFB7D18461837BD4680BD80B485B0C5
:103E700000AF78600023FB6015E0104AFB68682102
:103E800001FB03F313441B68002B09D1FB68682274
:103E900002FB03F3094A1A447B681A60002306E018
:103EA000FB680133FB60FB68002BE6D00223184659
:103EB0001437BD465DF8047B704700BFD80E002064
:103EC00080B592B000AF786000237B64012387F84F
:103ED00043307B68002B02D197F84330C6E17B6802
:103EE00093F86430002B08D07B6893F864207B68DB
:103EF0005B689B685B799A4202D997F84330B5E1D9
:103F00007B685B689B681A687B6893F86430194625
:103F10006FF060430B44DB0013447B630023FB63BF
:103F20004DE07B6B5968FA6B13465B0013449B00B2
:103F30000B441B78022B3FD10023BB6322E07B6B39
:103F40005968FA6B13465B0013449B000B445A6894
:103F5000BB6B1B0113441A787B6893F866309A4256
:103F60000DD17B6B5968FA6B13465B0013449B00C1
:103F70000B445A68BB6B1B0113447B640FE0BB6BA3
:103F80000133BB637B6B5968FA6B13465B001344C8
:103F90009B000B441B7A1A46BB6B9342CFD37B6BBF
:103FA0005968FA6B13465B0013449B000B44DA78A4
:103FB0007B6883F8652008E0FB6B0133FB637B6B58
:103FC0001B781A46FB6B9342ABD37B6C002B02D160
:103FD00097F843304AE17B687A6C9A600023FB6370
:103FE00068E0002387F830307B6C9968FA6B1346E1
:103FF0005B0013445B000B441B7987F831307B6C0A
:104000009968FA6B13465B0013445B000B441B7802
:1040100087F82E307B6C9968FA6B13465B0013446B
:104020005B000B445B88BB857B6C9968FA6B13461D
:104030005B0013445B000B445B7887F82F3097F8E4
:104040002E30DB09DBB2012B1CD197F82F30032B6C
:1040500018D197F82E3003F00F03DAB27B6883F89B
:1040600061207B68002283F862207B686FF0010288
:104070009A657B68002283F860207B680022DA65FD
:104080007C4B3B627B687B627B681B6807F120028C
:1040900007F12C01184609F063FA034687F843300C
:1040A00097F84330002B02D097F84330DEE0FB6BEB
:1040B0000133FB637B6C1B791A46FB6B934290D3F5
:1040C0000023FB6342E07B6B5968FA6B13465B008D
:1040D00013449B000B441B780A2B34D10023BB6391
:1040E00023E07B6B5968FA6B13465B0013449B001B
:1040F0000B445A68BB6B1B0113441A787B6893F816
:1041000066309A420ED17B6B5968FA6B13465B009E
:1041100013449B000B445A68BB6B1B0113447B6424
:1041200000BF19E0BB6B0133BB637B6B5968FA6B53
:1041300013465B0013449B000B441B7A1A46BB6B6F
:104140009342CED308E0FB6B0133FB637B6B1B78A0
:104150001A46FB6B9342B6D37B687A6CDA60002315
:10416000FB637AE000233B777B6C9968FA6B13461C
:104170005B0013445B000B441B797B777B6C996875
:10418000FA6B13465B0013445B000B441B78BB7651
:104190007B6C9968FA6B13465B0013445B000B441D
:1041A0005B883B837B6C9968FA6B13465B00134416
:1041B0005B000B445B78FB76BB7EDB09DBB2012B3B
:1041C0001BD1FB7E022B18D1BB7E03F00F03DAB2AA
:1041D0007B6883F829207B68002283F82A207B688B
:1041E0006FF001021A627B68002283F828207B6846
:1041F00000225A62204BFB601EE0BB7E5BB2002BAC
:104200001ADBFB7E022B17D1BB7E03F00F03DAB261
:104210007B6883F845207B68002283F846207B6812
:104220006FF00102DA637B68002283F844207B6828
:1042300000221A64114BFB607B683B617B681B6842
:1042400007F10C0207F11801184609F089F9034635
:1042500087F84330FB6B0133FB637B6C1B791A4699
:10426000FB6B9342FFF47EAF97F843301846483714
:10427000BD4680BD5DD70060B1D7006005D8006045
:1042800080B598B000AFF860B9607A60012387F814
:104290005F30BB6887F857307B68002B02D0FB6823
:1042A000002B01D103230CE3FB683B6597F85730E3
:1042B000013B052B00F2F08201A252F823F000BF6F
:1042C000C5460060D9420060E34200603D430060A3
:1042D000B1430060934400603B6D002283F864208A
:1042E000EDE27B68FB643B6D5B68002B00F0D682DF
:1042F000FB6C1A783B6D93F864309A4200F0D082E0
:10430000386D09F0A9FA034687F85F30FB6C1A781C
:104310003B6D83F864203B6D002283F86620386D86
:10432000FFF7CEFD034687F85F3097F85F30002B2C
:1043300000F0B882934807F07FFEB3E23B6D5B6804
:10434000002B00F0B1827B681B88A7F84A30B7F8D1
:104350004A3087F849303B6D93F86520B7F84A300A
:104360001B0A9BB2DBB29A4240F0A0823B6D93F8ED
:10437000663097F849209A4200F09A82386D09F029
:104380006BFA034687F85F303B6D97F8492083F856
:104390006620386DFFF794FD034687F85F3097F885
:1043A0005F30002B00F08682774807F045FE81E2FF
:1043B0003B6D5B68002B00F07F823B6D9B68002BA0
:1043C00000F07A823B6DDB68002B00F075827B6821
:1043D000FB640023BB651FE0FB6C19783B6D9B6899
:1043E0009868BA6D13465B0013445B0003441B7866
:1043F00099420ED13B6D012283F860203B6D1A6813
:10440000FB6C1B781946104609F05FF9034687F8E4
:104410005F30BB6D0133BB653B6D9B681B791A46F2
:10442000BB6D9342D8D30023BB652AE0FB6C19789F
:104430003B6DDB689868BA6D13465B0013445B0004
:1044400003441B78994219D1FB6C1B78DB09DBB262
:10445000012B04D13B6D012283F8282003E03B6D42
:10446000012283F844203B6D1A68FB6C1B781946C7
:10447000104609F02AF9034687F85F30BB6D013317
:10448000BB653B6DDB681B791A46BB6D9342CDD390
:1044900015E23B6D5B68002B00F00E823B6D9B6864
:1044A000002B00F009823B6DDB68002B00F00482DA
:1044B0007B68FB640023BB6559E0FB6C19783B6D9E
:1044C0009B689868BA6D13465B0013445B00034415
:1044D0001B78994248D13B6D1A68FB6C1B781946D2
:1044E000104609F00AF9034687F85F30FB6C1B7829
:1044F000DB09DBB2012B37D13B6D93F86030002B29
:1045000032D03B6D002283F860203B6D9B6D13F130
:10451000020F29D03B6D18683B6D93F861103B6D1D
:104520009A6D3B6DDB6D08F0ECFF034687F85F305A
:1045300097F85F30002B10D03B6D9B6DBB623B6DDD
:10454000DB6DFB62002387F830303B6D1B6807F1A1
:104550002801FA68184609F02BF93B6D6FF001024B
:104560009A653B6D0022DA65BB6D0133BB653B6D1F
:104570009B681B791A46BB6D93429ED30023BB6593
:1045800097E000BFA0EF0060E8EF0060FB6C1978D7
:104590003B6DDB689868BA6D13465B0013445B00A3
:1045A00003441B78994240F081803B6D1A68FB6C94
:1045B0001B781946104609F0A0F8034687F85F30CB
:1045C000FB6C1B78DB09DBB2012B38D13B6D93F818
:1045D0002830002B6AD03B6D002283F828203B6DE9
:1045E0001B6A13F1020F61D03B6D18683B6D93F8A5
:1045F00029103B6D1A6A3B6D5B6A08F082FF034627
:1046000087F85F3097F85F30002B10D03B6D1B6A46
:10461000FB613B6D5B6A3B62002387F824303B6D96
:104620001B6807F11C01FA68184609F0C1F83B6DD8
:104630006FF001021A623B6D00225A6236E03B6D58
:1046400093F84430002B31D03B6D002283F8442096
:104650003B6DDB6B13F1020F28D03B6D18683B6D8F
:1046600093F845103B6DDA6B3B6D1B6C08F062FFF5
:10467000034687F85F3097F85F30002B0FD03B6D13
:10468000DB6B3B613B6D1B6C7B6100233B763B6DC1
:104690001B6807F11001FA68184609F0B3F83B6D82
:1046A0006FF00102DA633B6D00221A64BB6D0133C7
:1046B000BB653B6DDB681B791A46BB6D9342FFF40B
:1046C00065AFFCE07B687B647B6C1B689B88DBB21E
:1046D0003A6D92F86520934240F0F0807B6C1B6845
:1046E0001B7803F06003202B40F0D4807B6C0433F4
:1046F0007B637B6C0833BB637B6C1B689B88BB87CD
:104700007B6C1B685B88FB877B6C1B7B87F840306E
:104710007B6C1B685B78232B00F2B88001A252F8F7
:1047200023F000BFB5470060CD470060E54700605B
:10473000FD470060154800608D4800608D480060AE
:104740008D4800608D4800608D4800608D48006095
:104750008D4800608D4800608D4800608D48006085
:104760008D4800608D4800608D4800608D48006075
:104770008D4800608D4800608D4800608D48006065
:104780008D4800608D4800608D4800608D48006055
:104790008D4800608D4800608D4800608D48006045
:1047A0008D480060454800602D4800605D4800600D
:1047B000754800603B6D5B681B6807F1340204219B
:1047C000386D9847034687F85F3064E03B6D5B685F
:1047D0001B6807F134020521386D9847034687F8B6
:1047E0005F3058E03B6D5B681B6807F134020621BF
:1047F000386D9847034687F85F304CE03B6D5B6847
:104800001B6807F134020721386D9847034687F883
:104810005F3040E03B6D5B681B6807F134020821A4
:10482000386D9847034687F85F3034E03B6D5B682E
:104830001B6807F134020921386D9847034687F851
:104840005F3028E03B6D5B681B6807F134020A218A
:10485000386D9847034687F85F301CE03B6D5B6816
:104860001B6807F134020B21386D9847034687F81F
:104870005F3010E03B6D5B681B6807F134020C2170
:10488000386D9847034687F85F3004E0052387F8C2
:104890005F3000E000BF12E000BF10E000BF0EE09C
:1048A00000BF0CE000BF0AE000BF08E000BF06E068
:1048B00000BF04E000BF02E000BF00E000BF97F8C7
:1048C0005F3018466037BD4680BD00BF80B586B0FA
:1048D00000AF0346B9607A60FB7307F11003184616
:1048E000FFF7C4FA0346FB75FB7D002B01D0FB7D6F
:1048F0004FE03B691A46FB7B1146184600F06AF907
:104900000346FB75FB7D002B01D0FB7D41E03B693D
:104910001B68002B01D103233BE03B69BA685A6056
:104920003B69002283F864203B69FF2283F86620FC
:104930003A693B6914321A613B691B69184603F0F6
:1049400003F90346002B02D0144807F075FB3A69BF
:104950003B693032DA623B69DB6A184603F0F4F8EF
:104960000346002B02D00D4807F066FB3A693B690D
:104970004C329A643B699B6C184603F0E5F8034699
:10498000002B02D0054807F057FB3A697B681A6094
:10499000FB7D18461837BD4680BD00BF2CF0006077
:1049A00080B584B000AF78607B68FB60FB68002B4B
:1049B00001D1032329E0FB681B69184603F0E4F8E2
:1049C0000346002B02D0134807F036FBFB68DB6A76
:1049D000184603F0D9F80346002B02D00D4807F023
:1049E0002BFBFB689B6C184603F0CEF80346002BAC
:1049F00002D0084807F020FBF86808F02DFF0346B6
:104A0000FB72F86808F091FEFB7A18461037BD4635
:104A100080BD00BF40F0006080B584B000AF0346A9
:104A20003960FB7107F10803184609F095FD002372
:104A3000FB6018E0284AFB681B0113441B68002B2D
:104A40000ED0254AFB681B0113440E331B78FA79FC
:104A50009A4205D1BB68184609F08BFD012337E067
:104A6000FB680133FB60FB68002BE3D00023FB6095
:104A700026E0194AFB681B0113441B68002B1CD15C
:104A8000154AFB681B0113440E33FA791A70FB6850
:104A9000DB00124A1A441049FB681B010B4408331F
:104AA0001A60FB681B010C4A1A443B681A60BB6819
:104AB000184609F05EFD00230AE0FB680133FB6045
:104AC000FB68002BD5D0BB68184609F052FD0223C5
:104AD00018461037BD4680BD400F0020500F002003
:104AE00080B584B000AF0346FB710023FB6007F183
:104AF0000803184609F030FD2CE01C4AFB681B0136
:104B000013441B68002B22D0184AFB681B01134476
:104B10000E331B78FA799A4219D1144AFB681B01AB
:104B2000134400221A60114AFB681B01134404332A
:104B300000221A600D4AFB681B0113440E33002249
:104B40001A70BB68184609F014FD00230AE0FB68E0
:104B50000133FB60FB68002BCFD0BB68184609F01F
:104B600008FD042318461037BD4680BD400F0020C5
:104B700080B584B000AF786039600023FB6007F136
:104B80000803184609F0E8FC16E0114AFB681B010F
:104B900013441B687A689A420BD1FB681B010C4ACC
:104BA0001A443B681A60BB68184609F0E2FC00230F
:104BB0000AE0FB680133FB60FB68002BE5D0BB68B3
:104BC000184609F0D6FC042318461037BD4680BDB0
:104BD000400F002080B584B000AF03463960FB7100
:104BE0000023FB6007F10803184609F0B5FC1FE03D
:104BF000154AFB681B0113441B68002B15D0124A91
:104C0000FB681B0113440E331B78FA799A420CD1CE
:104C10000D4AFB681B0113441A683B681A60BB68A5
:104C2000184609F0A6FC00230AE0FB680133FB608C
:104C3000FB68002BDCD0BB68184609F09AFC042303
:104C400018461037BD4680BD400F002090B587B094
:104C500000AFF8600B467A60FB7201237B757B68BE
:104C6000002B01D1042358E007F110031946F8681E
:104C7000FFF77EFF03463B753B7D002B01D00423ED
:104C80004BE00023BB7541E00023FB7536E0FB7D64
:104C9000244A1B0113440C3319783B695B6818687C
:104CA000BA7D13465B0013449B0003449B681B7949
:104CB000994220D1FB7D1B4A1B01134408331C6819
:104CC0003B695B681968BA7D13465B0013449B001F
:104CD0000B445B68F97A7A681846A04703463B752F
:104CE0003B7D052B01D1052317E03B7D002B09D12E
:104CF00000237B7506E0FB7D0133FB75FB7D002BFC
:104D0000C5D000E000BFBB7D0133BB753B695B686C
:104D10001B7ABA7D9A42B7D37B7D18461C37BD46B5
:104D200090BD00BF58F0006090B587B000AF03465B
:104D3000B9607A60FB737B68002B06D0BB68002BE0
:104D400003D0BB685B68002B01D1042370E007F13E
:104D50001002FB7B11461846FFF75EFE03467B758B
:104D60007B7D002B01D07B7D62E03B69BA685A6095
:104D70003B691A46FB7B3049184608F0DEFA0346C9
:104D80007B757B7D002B0AD03B691B68184608F0B9
:104D900097FBFB7B1846FFF7A3FE7B7D48E00023D3
:104DA000BB753AE00023FB7531E03B695B6819682D
:104DB000BA7D13465B0013449B000B449B681A7931
:104DC000FB7D1E491B010B440C331B789A421BD1FF
:104DD000FB7D1A4A1B0113441C683B695B68196818
:104DE000BA7D13465B0013449B00C8183B695B689F
:104DF0001968BA7D13465B0013449B000B441A1DCF
:104E0000FB7B01461846A047FB7D0133FB75FB7D0C
:104E1000012BCAD9BB7D0133BB753B695B681B7A2B
:104E2000BA7D9A42BED33B691A687B681A607B7D63
:104E300018461C37BD4690BD23DA006058F000606C
:104E400080B483B000AF786039603B68054A1A606F
:104E50003B6812225A60002318460C37BD465DF8A5
:104E6000047B70475C00002080B483B000AF7860A2
:104E700039603B681B7A002B07D13B68064A1A60F1
:104E80003B6843225A60002300E0052318460C3794
:104E9000BD465DF8047B70477000002080B485B08B
:104EA00000AF786039603B689B7A002B08D12A4BB1
:104EB0001A683B681A60284B5A683B685A6044E09D
:104EC0000023FB730323BB7317E03B681989224B54
:104ED0009868FA7B13465B0013449B0003441B89CC
:104EE000994207D13B689B7A022B0AD83B689B7A90
:104EF000BB7306E0FB7B0133FB73FB7B002BE4D031
:104F000000E000BFBB7B032B01D105231EE0124B49
:104F10009968FA7B13465B0013449B000B441A68A4
:104F2000BB7B9B0013441A683B681A600A4B996864
:104F3000FA7B13465B0013449B000B445A68BB7B0F
:104F40009B0013441A683B685A60002318461437C4
:104F5000BD465DF8047B70473001002080B400AF8F
:104F6000074BD3F8703203F01003002B02D1054B2E
:104F70001B6800E0044B1846BD465DF8047B704793
:104F800000800D40580F002000366E0180B582B0C1
:104F900000AF314B5B6903F00073002B2BD02E4B1D
:104FA0009B6903F44053B3F5005F11D0B3F5005F84
:104FB00013D8002B03D0B3F5805F05D00DE0274850
:104FC00000F06CFB78600BE0FFF7C8FF786007E04B
:104FD000234800F063FB786002E000237B6000BFA1
:104FE0001D4B5B69DB0E03F0070301337A68B2FBEC
:104FF000F3F37B602AE0184B9B6903F44023B3F57D
:10500000402F1DD0B3F5402F1DD8B3F5002F12D07F
:10501000B3F5002F17D8002B03D0B3F5802F05D0A0
:1050200011E00F4800F03AFB78600FE0032000F039
:1050300001FD78600AE0032000F0A6FC786005E03E
:10504000084B7B6002E000237B6000BF7B68184652
:105050000837BD4680BD00BF00C00F400D001000E6
:105060000D0030000065CD1D80B582B000AF0C4B47
:10507000DB6803F00103002B02D0012B05D007E011
:10508000084800F00BFB786005E0074B7B6002E00E
:1050900000237B6000BF7B6818460837BD4680BD93
:1050A00000C00F400D00100000366E0180B582B0C8
:1050B00000AF0346FB71FB7983F00103DBB2002BE9
:1050C00002D1134805F05CFF124B4FF08042C3F849
:1050D000582100BF0F4BD3F8703203F48033002BFC
:1050E000F8D00C4B4FF48032C3F8542100BF094B69
:1050F000D3F8503103F40043002BF8D0054B4FF4A4
:105100008032C3F8582100BF0837BD4680BD00BFBC
:1051100078F0006000800D4080B483B000AF03469B
:10512000FB71FB79002B04D1074B1022C3F87422CA
:1051300003E0054B1022C3F8782200BF0C37BD46B0
:105140005DF8047B704700BF00800D4080B400AF65
:10515000064BD3F87032054A43F00103C2F87032AF
:1051600000BFBD465DF8047B704700BF00800D4066
:1051700080B500AFFFF70AFF0246054B5B699B0A4B
:1051800003F007030133B2FBF3F3184680BD00BF01
:1051900000C00F4080B582B000AF144B5B6903F0D4
:1051A0004003002B0FD0114B5B6903F08003002BF1
:1051B00004D0012000F03EFC786007E0022000F0FF
:1051C000E3FB786002E0FFF7E1FE7860074B5B6984
:1051D0001B0C03F0070301337A68B2FBF3F37B6027
:1051E0007B6818460837BD4680BD00BF00C00F4031
:1051F00080B500AFFFF7BCFF0246054B5B691B0A99
:1052000003F003030133B2FBF3F3184680BD00BF84
:1052100000C00F4080B582B000AF0D4BDB6903F0DA
:105220004003002B03D0FFF799FE786002E0FFF700
:10523000DFFF7860064BDB6903F03F0301337A68D8
:10524000B2FBF3F37B607B6818460837BD4680BD30
:1052500000C00F4080B584B000AF0346FB71FB79FE
:105260001B2B00F2AC8001A252F823F0DD5200604B
:10527000DD520060E5520060ED520060F5520060C2
:10528000FD520060055300600D530060175300602D
:10529000215300602B53006035530060655300605C
:1052A0006F53006079530060835300608D5300603A
:1052B00097530060A1530060AB530060B55300608A
:1052C0003F53006047530060BF530060BF5300600E
:1052D000BF530060BF53006053530060FFF748FFA7
:1052E000F8606FE0FFF756FFF8606BE0FFF780FFB4
:1052F000F86067E0FFF78EFFF86063E0FFF72EFECF
:10530000F8605FE008F00FFEF8605BE0304800F006
:10531000C5F9F86056E0002000F08CFBF86051E021
:10532000012000F087FBF8604CE0022000F082FBD7
:10533000F86047E0032000F07DFBF86042E0FFF7F3
:1053400093FEF8603EE0FFF78FFE0346DB08FB604C
:1053500038E0FFF789FE03461E4AA2FB03239B08A1
:10536000FB602FE01C4800F099F9F8602AE000206B
:1053700000F00AFBF86025E0012000F005FBF86072
:1053800020E0022000F000FBF8601BE0032000F0AA
:10539000FBFAF86016E0114800F080F9F86011E0BF
:1053A0000F4800F07BF9F8600CE00E4800F076F949
:1053B000F86007E00C4800F071F9F86002E00023A3
:1053C000FB6000BFFB6818461037BD4680BD00BFBC
:1053D0000D001000ABAAAAAA0D0030000D00E000DD
:1053E0001500E0001600E0000D00700080B485B0EC
:1053F00000AF03463960FB71164BD3F88030154A75
:1054000043F00303C2F88030134BD3F84031124A03
:1054100043F00203C2F840310023FB6003E000BF09
:10542000FB680133FB60FB680C4A9342F7D90C4BD5
:10543000D3F820310B4A1A40094941F20173134352
:10544000C1F82031012318461437BD465DF8047BAE
:10545000704700BF00C00F4000002E407F1A0600BA
:1054600000800D40FEE0FFFF80B584B000AF034632
:105470003960FB710023BB81154B1B6903F400539A
:10548000002B06D0124B1B69114A43F040031361F5
:1054900004E007F10C03184600F06CF80D4B1B6B91
:1054A0000C4A23F0004313630A4B1B6B094A23F099
:1054B00080431363074B00221A60064B1B6B054A9F
:1054C00043F4C6131363012318461037BD4680BD4D
:1054D00000800D4000900D4080B483B000AF786034
:1054E000224B1B6B23F4E0327B681B7B9B039BB23C
:1054F00013431E4A43F4803313631C4B1A6B1C4B3B
:1055000013407A68127802F001021343174A43F4F9
:10551000005313637B685B68144A23F040431365B0
:105520007B689B68114A23F0404313667B685B8A63
:10553000C3F30E027B681B7CDB039BB21A437B68C0
:10554000DB891B04094913430B6400BF074B1B6B2A
:10555000002BFBDA054B1B6B044A23F480331363E7
:1055600000BF0C37BD465DF8047B704700800D40DE
:10557000FECFFFFF80B483B000AF7860154B1B698E
:1055800023F4E0327B685B789B039BB21343114AA0
:1055900043F4803313610F4B1A690F4B13407A6841
:1055A0001278520002F0020213430A4A43F44153B4
:1055B000136100BF074B1B69002BFBDA054B1B690E
:1055C000044A23F48033136100BF0C37BD465DF8F5
:1055D000047B704700800D40BDCFFFFF80B400AF5B
:1055E000044B4FF480521A6700BFBD465DF8047B40
:1055F000704700BF00800D4080B485B000AF786078
:105600007B68DB7803F00303FB60224BD3F8E030C8
:1056100023F4E0327B681B799B039BB213431D4A42
:1056200043F48033C2F8E0307B681B78002B03D052
:10563000FB6843F40053FB607B689B78002B03D02E
:10564000FB6843F40013FB607B685B78002B03D09E
:10565000FB6843F48003FB600E4BD3F8E0200E4B55
:1056600013400C49FA681343C1F8E03000BF094BFE
:10567000D3F8E030002BFADA064BD3F8E030054AD5
:1056800023F48033C2F8E03000BF1437BD465DF824
:10569000047B704700800D40FCEFFFFFB0B58AB07F
:1056A00000AF7860924B07F108040FCB84E80F003D
:1056B0007968904808F059FC034683F00103DBB297
:1056C000002B01D000230FE179688A4808F06BFCB9
:1056D00078627968874808F02FFC0346002B01D0D8
:1056E0007B6A01E17B68844A934200F0F6807B6824
:1056F000814A934200F2F4807B68804A934200F032
:10570000E9807B687D4A934200F2EA807B687C4AAC
:10571000934200F0D0807B68794A934200F2E080A7
:105720007B68784A934255D07B68764A934200F270
:10573000D7807B68744A93423ED07B68734A934219
:1057400040F0CE807B6A18464FF00001694B1B6D1C
:105750001A464FF0000302FB01F500FB03F42C4452
:10576000A0FB0223E1180B46C7E90623C7E906237D
:10577000604B1B6E1A464FF00003D7E9060109F093
:10578000EAFA02460B46C7E906235A4B1B6B03F0A5
:105790000103002B05D07B6A162202FB03F37B6218
:1057A00005E07A6A13469B0013449B007B62BB6949
:1057B0007A6A13447B6296E04E4B1B6903F0020346
:1057C000002B01D0162200E014227B6A02FB03F3B7
:1057D0007B6288E0474B1B6F03F07F033B627B6A71
:1057E00018464FF00001434BD3F880301A464FF073
:1057F000000302FB01F500FB03F42C44A0FB022391
:10580000E1180B46C7E90623C7E90623394BD3F84D
:1058100090301A464FF00003D7E9060109F09BFAD1
:1058200002460B46C7E906237B6A3A6A02FB03F28B
:10583000BB6913447B622F4B1B6F03F4C013B3F59A
:10584000801F13D0B3F5801F0DD8002B03D0B3F504
:10585000002F04D007E07B6A9B087B6207E07B6A2D
:105860005B087B6203E02A4805F08AFB00BF214BFE
:10587000D3F87021274B1340264A93420ED0254A75
:10588000934213D8B3F5000F13D0B3F5000F0DD822
:10589000002B0ED0B3F5004F04D007E07B6A9B08C5
:1058A0007B6207E07B6A5B087B6203E01A4805F0D5
:1058B00067FB00BF17E00F4BD3F8E03003F00303A2
:1058C0003B623B6A9B0007F12802134453F8203CDB
:1058D0007B6208E0114B7B6205E0114B7B6202E0CA
:1058E00000237B6200BF7B6A18462837BD46B0BDE7
:1058F0006CF1006000800D401600E0001500E00033
:105900000D00E0000D0070000D0010000D003000D3
:105910007CF100600080800098F1006040787D019B
:105920000065CD1D80B485B000AF03460A46FB710B
:105930001346BB71FB79FB60124BD3F80021FB6867
:10594000DB00BF2101FA03F3DB431340BB60FB68BC
:10595000DB0080229A400B49BB681343C1F8003139
:10596000BB7903F03F02FB68DB009A400549BB6846
:105970001343C1F8003100BF1437BD465DF8047B06
:10598000704700BF00800D4080B584B000AF034673
:10599000FB712648FFF782FEF860FB79032B36D8AF
:1059A00001A252F823F000BFB9590060CD59006040
:1059B000E3590060F95900601D4BD3F8003103F042
:1059C0003F03FA68B2FBF3F3FB6023E0184BD3F814
:1059D00000311B0A03F03F03FA68B2FBF3F3FB60EC
:1059E00018E0134BD3F800311B0C03F03F03FA68A7
:1059F000B2FBF3F3FB600DE00D4BD3F800311B0E4F
:105A000003F03F03FA68B2FBF3F3FB6002E000230C
:105A1000FB6000BFFA681346DB0013445B00FB60C9
:105A2000FB6818461037BD4680BD00BF0D00300032
:105A300000800D4080B584B000AF0346FB7126485E
:105A4000FFF72CFEF860FB79032B36D801A252F841
:105A500023F000BF655A0060795A00608F5A0060D9
:105A6000A55A00601D4BD3F8F03003F03F03FA68ED
:105A7000B2FBF3F3FB6023E0184BD3F8F0301B0AC2
:105A800003F03F03FA68B2FBF3F3FB6018E0134B3B
:105A9000D3F8F0301B0C03F03F03FA68B2FBF3F3CA
:105AA000FB600DE00D4BD3F8F0301B0E03F03F030D
:105AB000FA68B2FBF3F3FB6002E00023FB6000BF77
:105AC000FA681346DB0013445B00FB60FB68184672
:105AD0001037BD4680BD00BF0D00100000800D4096
:105AE000F0B585B000AF786039607B68002B02D1DB
:105AF0001E4805F045FA7B6818464FF000013B68E8
:105B00001A464FF0000302FB01FC00FB03F666445B
:105B1000A0FB020173181946154A4FF0000309F063
:105B20001AF902460B46C7E90223D7E90223012BE3
:105B300008BF002A02D30F4805F022FAD7E9020174
:105B40004FF003024FF0000309F005F902460B463F
:105B5000941843EB0305C7E90245BB68184608F0F3
:105B60003CFA00BF1437BD46F0BD00BFB4F1006081
:105B700040420F00DCF1006080B500AF054B1B68B0
:105B8000054A1268114605489847BFF34F8F00BF7A
:105B900000BF80BD640F0020600F002000802A40FD
:105BA00080B586B000AF03460A46FB8013467B7182
:105BB000B7F906301B0A7B61FB8803F01F033B61CA
:105BC0007B69062B02D90D4805F0DAF97A690C4B8E
:105BD00013449B00FB60FB681A6803213B6901FAD0
:105BE00003F3DB431A4079793B6901FA03F31A4363
:105BF000FB681A6000BF1837BD4680BD04F2006024
:105C00001AF0031080B584B000AF78600023FB6009
:105C100009E00D4AFB6852F823307A689A4206D0B0
:105C2000FB680133FB60FB68052BF2D900E000BF85
:105C3000FB68052B02D9054805F0A2F9FB68184658
:105C40001037BD4680BD00BF28F200604CF20060F6
:105C500080B586B000AFF860B9607A60F868FFF789
:105C6000D1FF78617B69052B0DD8214A7B6932F918
:105C70001330B3F1FF3F06D01D4A7B6932F9133070
:105C8000184608F0BAF9FB685A690121BB6801FAA5
:105C900003F3DB431A40FB685A617B681B78002BD7
:105CA0000AD1FB685A680121BB6801FA03F3DB43A0
:105CB0001A40FB685A600FE07B685B781A46B96847
:105CC000F86800F017F8FB685A680121BB6801FA10
:105CD00003F31A43FB685A607B689B781A46B968DD
:105CE000F86808F099F900BF1837BD4680BD00BFBD
:105CF00040F2006080B584B000AFF860B960134630
:105D0000FB71BB681F2B02D90B4805F039F9FB79F1
:105D1000002B06D10122BB689A40FB68C3F888209B
:105D200005E00122BB689A40FB68C3F8842000BFED
:105D30001037BD4680BD00BF80F2006080B487B0E0
:105D400000AFF860B9601346FB71BB683B61FB684C
:105D5000DA690121BB6801FA03F3DB431A40FB68EF
:105D6000DA61BB680F2B03D8FB680C337B6105E05D
:105D7000FB6810337B613B69103B3B61FB79013B66
:105D8000042B52D801A252F823F000BFA15D00609D
:105D9000B95D0060DD5D0060015E0060175E00605F
:105DA0007B691A683B695B00032101FA03F3DB435B
:105DB0001A407B691A6039E07B691A683B695B00AD
:105DC000032101FA03F3DB431A403B695B00012125
:105DD00001FA03F31A437B691A6027E07B691A68AA
:105DE0003B695B00032101FA03F3DB431A403B6983
:105DF0005B00022101FA03F31A437B691A6015E084
:105E00007B691A683B695B00032101FA03F31A43BB
:105E10007B691A600AE0FB68DA690121BB6801FA54
:105E200003F31A43FB68DA6100E000BF00BF1C37D0
:105E3000BD465DF8047B704780B586B000AF034671
:105E40000A46FB8013467B71B7F906301B0A7B615B
:105E5000FB8803F01F033B617B69062B02D90D48C9
:105E600005F08EF87A690C4B13449B00FB60FB68CD
:105E70001A6803213B6901FA03F3DB431A4079797D
:105E80003B6901FA03F31A43FB681A6000BF183735
:105E9000BD4680BD04F200601AF0031080B582B0E8
:105EA00000AF786039603B68013BB3F5805F02D397
:105EB000084805F065F87B685A68074B13403A6854
:105EC000013AC2F30B021A437B685A6000BF0837DD
:105ED000BD4680BD9CF2006000F0FFFF80B584B03D
:105EE00000AF78600023FB6009E00D4AFB6852F8C0
:105EF00023307A689A4206D0FB680133FB60FB6866
:105F0000022BF2D900E000BFFB68022B02D9054842
:105F100005F036F8FB6818461037BD4680BD00BF57
:105F2000D4F20060E8F2006080B582B000AF786023
:105F300039603B68002B02D12A4805F021F87868C7
:105F4000FFF7CCFF0346284A32F91330184608F011
:105F500074F87B6800221A60786808F07DF83B6866
:105F60001B7A002B02D04FF4007200E000223B6845
:105F70005B7A002B01D0082300E0002313433A682A
:105F8000927A002A01D0202200E0002213433A68CE
:105F9000D27A002A01D0102200E0002213433A688E
:105FA000127B002A01D0042200E0002213433A6849
:105FB000527B002A01D0022200E000221A437B68B3
:105FC0001A603B681B781946786808F05EF83B68F1
:105FD0005B6819467868FFF761FF00BF0837BD4668
:105FE00080BD00BF1CF30060E0F2006080B582B0AD
:105FF00000AF78607B68002B02D1124804F0C0FF2C
:1060000010220021786808F09AFC7B6801221A703F
:106010007B6801225A607B6801229A727B680122A8
:106020005A727B680022DA727B6800221A737B68DE
:1060300000221A727B6801225A7300BF0837BD46DE
:1060400080BD00BF40F3006080B586B000AF03465E
:106050000A46FB8013467B71B7F906301B0A7B6149
:10606000FB8803F01F033B617B69062B02D90D48B7
:1060700004F086FF7A690C4B13449B00FB60FB68BD
:106080001A6803213B6901FA03F3DB431A4079796B
:106090003B6901FA03F31A43FB681A6000BF183723
:1060A000BD4680BD04F200601AF0031080B584B0D4
:1060B00000AF78600023FB6009E00D4AFB6852F8EE
:1060C00023307A689A4206D0FB680133FB60FB6894
:1060D000042BF2D900E000BFFB68042B02D905486D
:1060E00004F04EFFFB6818461037BD4680BD00BF68
:1060F00060F3006080F3006080B586B000AFF860A8
:10610000B9607A603B60FB68002B02D11D4804F047
:1061100037FF3B68002B02D11B4804F031FFFA68BF
:106120003B68B2FBF3F3194AA2FB03239B09184A0D
:10613000B2FBF3F33B6100237B6102E07B69013337
:106140007B617B6901333A6902FB03F3BA689A42C7
:1061500004D97B6901337A689A42EFD87B69002BB6
:106160000AD1BA6813469B0013445B001A463B6988
:10617000934201D801237B617B6918461837BD46DD
:1061800080BD00BFB8F30060E0F30060D34D621043
:1061900040420F0080B582B000AF78601C22002121
:1061A000786808F0CCFB7B6801221A707B680022BB
:1061B0009A707B6801225A707B680022DA707B68D3
:1061C00000221A717B680D4A9A607B680022DA60AF
:1061D0007B6800221A617B6800221A757B680022A6
:1061E0005A757B6800229A757B680022DA757B6895
:1061F00001221A7600BF0837BD4680BDA086010087
:1062000080B58AB000AFF860B9607A60F868FFF7CF
:106210004DFF3862684A3B6A32F91330184607F07E
:106220005CFFF86807F068FFBB689B78DB0003F051
:106230000802BB685B7883F00103DBB29B0003F0CC
:1062400004031A43FB681A61FB681B6AFB61FB6964
:1062500023F00703FB61BB689B7D1A46BB681B7E6E
:106260005B0003F002031A43BB68DB7D9B0003F075
:1062700004031343FA691343FB61FB68FA691A626A
:10628000FB685B6AFB61FA694C4B1340FB61BB68BE
:106290001B791B0603F0E063FA691343FB61BB68DB
:1062A000DB785B0203F40073FA691343FB61FB685C
:1062B000FA695A6200220021F86807F041FFFB6882
:1062C0005B6A03F00703BB61FB689B6A7B62BB6888
:1062D000DB68002B12D0BB68D968BB6940F6FF723F
:1062E0007868FFF709FF78617A6A354B13407B6263
:1062F0007B69C3F30B037A6A13437B62BB681B7D24
:10630000002B13D0BB681B7D194601230F22786830
:10631000FFF7F2FE78617B6A23F070637B627B6932
:106320001B0603F070637A6A13437B62BB685B7D74
:10633000002B13D0BB685B7D194601230F227868C0
:10634000FFF7DAFE78617B6A23F470237B627B6956
:106350001B0403F470237A6A13437B62FB687A6A36
:106360009A62BB689B681A467968F86800F02EF854
:10637000BB681B69002B14D0BB681B69190ABB6979
:1063800040F6FF727868FFF7B7FE7861FB68DB6A5A
:106390000C4A1A407B6919020B4B0B401A43FB68ED
:1063A000DA62BB681B781946F86807F0B5FE00BFD3
:1063B0002837BD4680BD00BF74F30060FFFDFFF8C5
:1063C00000F0FFFFFF00F0FF00FF0F0080B58EB070
:1063D00000AFF860B9607A60FB689B6A1B0CDBB2A7
:1063E00003F00F0387F82930012387F837300123A2
:1063F00087F83630002387F83530002387F83430AB
:10640000002387F8333000237B624FF0FF33FB62B9
:1064100000233B62FB681B6903F00103002B14BFE0
:1064200001230023FB770021F86807F075FE0023A5
:1064300087F835306CE0BA6813469B0013445B0064
:106440001A4697F83730B2FBF3F27B68B2FBF3F3EE
:1064500005338D4AA2FB0323DB08DAB297F8293013
:10646000991C97F83730B1FBF3F3DBB2D31ADBB2E8
:10647000023BBB77BA7F97F82930991C97F83730E1
:10648000B1FBF3F3C3F178039A4205D997F837309B
:106490005B0087F8373036E097F83730BA68B2FBE0
:1064A000F3F2B97F97F82930981C97F83730B0FB92
:1064B000F3F30B440233B2FBF3F3BB617A68BB69BD
:1064C0009A4203D97A68BB69D31A02E0BA697B6839
:1064D000D31A7B627A6AFB6A9A420FD297F83530F8
:1064E00087F8343097F8373087F83630BB7F87F835
:1064F00033307B6AFB627B6A002B0ED097F8373013
:106500005B0087F8373097F83530013387F835303E
:1065100097F83530072B8ED900E000BF97F833206D
:1065200097F82930991C97F83630B1FBF3F3D31A5A
:106530005B0887F82B3004E097F82B30013B87F895
:106540002B3097F82B2097F83310BB68342000FBD2
:1065500003F07B68B0FBF3F097F83630B0FBF3F351
:106560004A48A0FB03035B09CB1A01339A42E3D8E4
:10657000BA687B68B2FBF3F297F83630B2FBF3F3FC
:106580005B08DBB2013BFB75BA687B68B2FBF3F2D8
:1065900097F83630B2FBF3F39B08DBB2013BBB75D7
:1065A000BA687B68B2FBF3F3374AA2FB03231A09EC
:1065B00097F8363002339A4233D9FB689B6A1B0E38
:1065C000DBB203F00F0387F82A3097F82A20B96866
:1065D0007B68B1FBF3F32C49A1FB0313190997F86E
:1065E0003630CB1A023B9A420FD2BA687B68B2FBB4
:1065F000F3F3254AA2FB03231B09DAB297F83630DE
:10660000D31ADBB2023B87F82A30FB689B6A23F07F
:10661000706297F82A301B0603F070631A43FB6818
:106620009A6297F82B301B0203F47C5297F83310D0
:1066300097F82B30CB1ADBB203F03F031A43FB7DF4
:106640001B0403F47C131A43BB7D1B0603F07C532D
:1066500013433B62FB683A6A9A64FB685B6A23F007
:10666000070297F8343003F007031A43FB685A62B5
:10667000FB7F002B03D00121F86807F04DFD00BF20
:106680003837BD4680BD00BFCDCCCCCC1F85EB518B
:1066900080B582B000AF786039607B681B6903F019
:1066A0000103002B0CD0144B1B68002B08D0124B9D
:1066B0001B6812493A6851F82220114678689847B9
:1066C0007B68D3F8103103F00103002B0CD00C4B86
:1066D0001B68002B08D00A4B1B680A493A6851F81E
:1066E0002220114678689847BFF34F8F00BF00BF44
:1066F0000837BD4680BD00BF680F00206C0F00202A
:10670000800F0020840F002080B500AF01210248D7
:10671000FFF7BEFF00BF80BD00003F4080B500AF67
:1067200002210248FFF7B4FF00BF80BD00403F4098
:1067300080B500AF03210248FFF7AAFF00BF80BD6C
:1067400000803F4080B500AF04210248FFF7A0FF62
:1067500000BF80BD00C03F4080B586B000AF03469B
:106760000A46FB8013467B71B7F906301B0A7B6132
:10677000FB8803F01F033B617B69062B02D90D48A0
:1067800004F0FEFB7A690C4B13449B00FB60FB6832
:106790001A6803213B6901FA03F3DB431A40797954
:1067A0003B6901FA03F31A43FB681A6000BF18370C
:1067B000BD4680BD04F200601AF0031080B584B0BD
:1067C00000AF78600023FB730023FB7309E0FB7BC1
:1067D0000C4A52F823307A689A4206D0FB7B013388
:1067E000FB73FB7B042BF2D900E000BFFB7B042B87
:1067F00002D9054804F0C4FBFB7B18461037BD46A0
:1068000080BD00BF0CF400602CF4006080B584B043
:1068100000AF78600B46FB707868FFF7CFFFF86039
:10682000044AFB681344FA781A7000BF1037BD465B
:1068300080BD00BFB40F002080B586B000AFF86007
:10684000B9607A60BB68002B02D13F4804F098FB26
:1068500000233B61F868FFF7B1FF78613B4A7B6931
:1068600032F91330184607F081FC0121F86807F06F
:1068700000FDBB68197EBB685B7E1A46F86807F0AE
:1068800082FDFB685A6A324B1340BA68D27E920688
:1068900002F080621A43BB689B7E1B0603F04073C4
:1068A0001A43FB685A62BB68196807F110037A68DB
:1068B000F86800F0B3F800220021F86807F01AFD2C
:1068C000BB681B7ADA07BB685B7A9B0703F08043DF
:1068D0001A43BB689B7ADB0503F400031A43BB68C9
:1068E0005B68013BC3F30B031A433B69DB0603F010
:1068F00060531A43BB681B7E1B0603F040731A43A8
:10690000FB681A660121F86807F04EFCBB68D9687D
:106910007B680122F868FBF72FFDBB6819697B686B
:106920000222F868FBF728FDBB6859697B680322DF
:10693000F868FBF721FD0021F868FFF767FF00BF4B
:106940001837BD4680BD00BF64F4006020F40060CD
:10695000F7FFFFF880B582B000AF78607B68002B4E
:1069600002D11F4804F00CFB1C220021786807F0BC
:10697000E6FF7B681B4A1A607B6808225A607B68C6
:1069800000221A727B6800225A727B6800229A7277
:106990007B681B68144AB2FBF3F35A007B68DA6029
:1069A0007B681B68104AB2FBF3F35A007B681A61DC
:1069B0007B681B680C4AB2FBF3F35A007B685A6190
:1069C0007B6800221A767B6800225A767B68002258
:1069D0009A767B680022DA7600BF0837BD4680BD14
:1069E0008CF4006020A1070000CA9A3B80B584B0F7
:1069F00000AF7860786807F0ADFC7868FFF7DEFEDE
:106A0000F860054AFB6832F91330184607F0BDFB01
:106A100000BF1037BD4680BD20F4006080B58EB049
:106A200000AFF860B9607A603B603B68002B02D130
:106A3000364804F0A5FAF86807F031FC034683F005
:106A40000103DBB2002B05D1FB681B6903F00103D6
:106A5000002B01D0002354E0BB68FB614FF0FF33F3
:106A60003B6207233B63FF23BB6200237B6200235F
:106A70007B6334E03B6A002B35D00023FB6226E0C9
:106A80003B6A002B27D0224A7B6B13441B781A46A3
:106A9000FB6A023303FB02F37A68B2FBF3F3BB61D8
:106AA000FA69BB699A420FD3FA69BB69D31A7B6151
:106AB0003A6A7B699A4207D97B693B627B6B3B638D
:106AC000FB6ABB62BB697B62FB6A0133FB62FB6AE8
:106AD000FF2BD5D900E000BF7B6B01337B637B6B61
:106AE000072BC7D900E000BFFB681B6C23F0FF0237
:106AF000BB6ADBB21A43FB681A643B683A6B1A60E4
:106B00007B6A18463837BD4680BD00BFB4F40060CC
:106B100004F4006080B584B000AFF860B96013463B
:106B2000FB71FB79032B1CD0032B25DC012B02D03E
:106B3000022B0CD020E0FB681B6C23F47F02BB68A7
:106B40001B0403F47F031A43FB681A6417E0FB6815
:106B50001B6C23F07F42BB681B061A43FB681A6458
:106B60000DE0FB681B6C23F47F42BB681B029BB2E9
:106B70001A43FB681A6402E0034804F001FA00BFFC
:106B80001037BD4680BD00BFE0F4006080B584B022
:106B900000AFF860B9607A60FB68002B02D1204832
:106BA00004F0EEF9FB689B68002B01D1002333E071
:106BB000FB681B68002B05D1FB685B68002B01D1CB
:106BC000002329E07B68042B0CD8FB689B687A685B
:106BD000B3FBF2F2796801FB02F29B1A002B1AD088
:106BE000002319E07B6803F00303002B06D0FB6849
:106BF0009B687A689A420ED000230DE0FB689B6880
:106C00007A68B3FBF2F2796801FB02F29B1A002B5F
:106C100001D0002300E0012318461037BD4680BD97
:106C2000FCF4006080B592B000AF786039603B68DA
:106C3000002B02D1A04804F0A3F97B681B6EC3F3BC
:106C40000B030133BB62BB6A0733DB087B620023A3
:106C50003B627868FFF7B2FD0346984AD35CFB7746
:106C60007A6AB96A3868FFF791FF034683F0010337
:106C7000DBB2002B01D0042355E1786807F0B0FAAD
:106C8000034603F08073002B02D04FF4C8734AE12F
:106C90003B681B687B643B685B683B643B689B6844
:106CA000FB633B689B68BB630023BB61FA7FFB7F90
:106CB0001B021A43FB7F1B041A43FB7F1B06134373
:106CC0003B63786807F098FA03467B617B6A042B84
:106CD00028BF04231A467B6902FB03F33B613B6830
:106CE000DB681B0903F00F03FB603B68DB6803F400
:106CF0008013002B14BF01230023FB72002387F8AD
:106D00002F303B68DB6803F48003002B14BF0123A2
:106D10000023BB7201220121786807F0D3FA684989
:106D2000786807F098FA3B6C002B02D1012387F8B2
:106D30002F300021786807F037FA7B685B6A23F010
:106D400008027B685A627B685B6A3B623B6A03F0BD
:106D500040733B623B6AB3F1807F03D03B6AB3F17F
:106D6000007F10D17B6C002B05D17B685B6A43F000
:106D700080627B685A627B6C002B04D03B6C002BDA
:106D800001D00423CFE00121786807F00DFA7B6879
:106D90001B6E23F04E72FB7A5B0503F400131A435B
:106DA00097F82F30DB0403F400231A43FB681B061B
:106DB00003F040731A437B681A667B6A042B06D87B
:106DC0007B6A87F837307B6A87F836305FE00423C8
:106DD00087F83730042387F8363058E097F8373093
:106DE000FA6B9A4202D2FB6B87F8373000BF7868A3
:106DF00007F014FA02467B699342F8D03B6C002BF3
:106E000005D0BA6BFB6BD31A3A699A4218D97B6CDE
:106E1000002B0CD0BA7A97F837301946786C00F00E
:106E200087F8386397F837307A6C13447B64396B92
:106E3000786807F075FA97F83730FA6BD31AFB6366
:106E40003B6C002B23D01CE0786807F077FAB86120
:106E500097F83630BA6B9A4202D2BB6B87F836305D
:106E6000BB7A97F83620B969386C00F03FF997F88B
:106E700036303A6C13443B6497F83630BA6BD31A09
:106E8000BB63786807F0D8F90346002BDCD1FB6BB5
:106E9000002BA3D100BF786807F0C0F902467B69D8
:106EA0009342F8D07B681B6E23F480127B681A66CD
:106EB0003B6C002B2DD028E020F50060B40F0020A3
:106EC000033F0001786807F039FAB86197F8363067
:106ED000BA6B9A4202D2BB6B87F83630BB7A97F80E
:106EE0003620B969386C00F001F997F836303A6C01
:106EF00013443B6497F83630BA6BD31ABB63786897
:106F000007F09AF90346002BDCD1BB6B002BF6D1BE
:106F100008E000BF786807F063F9034603F4806374
:106F2000002BF7D0002318464837BD4680BD00BF70
:106F300080B584B000AF78600B46FB701346BB7021
:106F40007B68002B02D1674804F01AF80023FB602D
:106F5000FB78013B032B00F2BD8001A252F823F025
:106F6000716F00607F6F0060CD6F00603F700060E8
:106F70007B681B78FB607B6801337B60ADE0BB788E
:106F800083F00103DBB2002B0FD07B681B78FB6022
:106F90007B6801337B607B681B781B02FA681343B4
:106FA000FB607B6801337B6097E07B681B781B028A
:106FB000FB607B6801337B607B681B781A46FB684B
:106FC0001343FB607B6801337B6086E0BB7883F012
:106FD0000103DBB2002B18D07B681B78FB607B6859
:106FE00001337B607B681B781B02FA681343FB60EC
:106FF0007B6801337B607B681B781B04FA68134352
:10700000FB607B6801337B6067E07B681B781B0457
:10701000FB607B6801337B607B681B781B02FA682E
:107020001343FB607B6801337B607B681B781A46E7
:10703000FB681343FB607B6801337B604DE0BB78EA
:1070400083F00103DBB2002B21D07B681B78FB604F
:107050007B6801337B607B681B781B02FA681343F3
:10706000FB607B6801337B607B681B781B04FA68DC
:107070001343FB607B6801337B607B681B781B06D6
:10708000FA681343FB607B6801337B6025E07B6813
:107090001B781B06FB607B6801337B607B681B7879
:1070A0001B04FA681343FB607B6801337B607B68D9
:1070B0001B781B02FA681343FB607B6801337B601B
:1070C0007B681B781A46FB681343FB607B680133BF
:1070D0007B6002E0044803F053FFFB68184610375A
:1070E000BD4680BD44F5006068F5006080B584B0A1
:1070F00000AFF860B96011461A460B46FB711346A3
:10710000BB71FB68002B02D1624803F039FFFB79A9
:10711000013B032B00F2B68001A252F823F000BF1E
:1071200031710060417100608D710060F971006023
:10713000BB68DAB2FB681A70FB680133FB60A4E03D
:10714000BB7983F00103DBB2002B0FD0BB68DAB24E
:10715000FB681A70FB680133FB60BB681B0ADAB27C
:10716000FB681A70FB680133FB608EE0BB681B0A8A
:10717000DAB2FB681A70FB680133FB60BB68DAB2F5
:10718000FB681A70FB680133FB607EE0BB7983F01B
:107190000103DBB2002B17D0BB68DAB2FB681A70B0
:1071A000FB680133FB60BB681B0ADAB2FB681A702C
:1071B000FB680133FB60BB681B0CDAB2FB681A701A
:1071C000FB680133FB6060E0BB681B0CDAB2FB6854
:1071D0001A70FB680133FB60BB681B0ADAB2FB68FC
:1071E0001A70FB680133FB60BB68DAB2FB681A7087
:1071F000FB680133FB6048E0BB7983F00103DBB23D
:10720000002B1FD0BB68DAB2FB681A70FB68013331
:10721000FB60BB681B0ADAB2FB681A70FB680133BB
:10722000FB60BB681B0CDAB2FB681A70FB680133A9
:10723000FB60BB681B0EDAB2FB681A70FB68013397
:10724000FB6022E0BB681B0EDAB2FB681A70FB68B9
:107250000133FB60BB681B0CDAB2FB681A70FB6879
:107260000133FB60BB681B0ADAB2FB681A70FB686B
:107270000133FB60BB68DAB2FB681A70FB6801334C
:10728000FB6002E0044803F07BFE00BF1037BD4600
:1072900080BD00BF84F50060A8F5006080B582B0B5
:1072A00000AF78603960786806F0F9FF0346002B7C
:1072B00005D0094B1B6839687868984704E0074B8C
:1072C0001B68396878689847BFF34F8F00BF00BFCD
:1072D0000837BD4680BD00BFAC0F0020B00F0020B6
:1072E00080B500AF074B5B68002B02D1064803F066
:1072F00047FE044B5B6819460448FFF7CFFF00BF09
:1073000080BD00BF980F0020C4F5006000403940E8
:1073100080B500AF074B9B68002B02D1064803F0F5
:107320002FFE044B9B6819460448FFF7B7FF00BFC8
:1073300080BD00BF980F0020F4F500600080394048
:1073400080B500AF074BDB68002B02D1064803F085
:1073500017FE044BDB6819460448FFF79FFF00BF88
:1073600080BD00BF980F002024F6006000C03940A7
:1073700080B500AF074B1B69002B02D1064803F014
:10738000FFFD044B1B6919460448FFF787FF00BF48
:1073900080BD00BF980F002054F6006000003A4006
:1073A00080B586B000AF03460A46FB8013467B716A
:1073B000B7F906301B0A7B61FB8803F01F033B61B2
:1073C0007B69062B02D90D4803F0DAFD7A690C4B74
:1073D00013449B00FB60FB681A6803213B6901FAB8
:1073E00003F3DB431A4079793B6901FA03F31A434B
:1073F000FB681A6000BF1837BD4680BD04F200600C
:107400001AF0031080B584B000AF78600023FB60F1
:1074100009E00D4AFB6852F823307A689A4206D098
:10742000FB680133FB60FB68082BF2D900E000BF6A
:10743000FB68082B02D9054803F0A2FDFB6818463B
:107440001037BD4680BD00BF84F60060BCF600600A
:1074500080B58CB000AFF860B9607A60BB68002B73
:1074600002D1A24803F08CFDBB681B68002B02D13F
:107470009F4803F085FDBB681B7A042B02D99D4809
:1074800003F07EFDBB685B7A042B02D99A4803F0B7
:1074900077FD0023FB62BB681B68FB61002387F854
:1074A00023300023FB84042387F8223041E07A68EC
:1074B00013469B0013445B001946BB681B6897F892
:1074C000222002FB03F3B1FBF3F305338B4AA2FB4B
:1074D0000323DB08BB84BB8C002B01D10123BB84BD
:1074E00097F82230BA8C02FB03F37A68B2FBF3F30D
:1074F0007B61BB681B687A699A4204D9BB681B68C8
:107500007A69D31A03E0BB681A687B69D31A3B61B6
:107510003A69FB699A4207D83B69FB6197F82230C8
:1075200087F82330BB8CFB8497F82230013387F82F
:10753000223097F82230202BB9D9BB681B68704ADB
:10754000A2FB03235A0913465B001344FA699A42CB
:1075500003D940F22153FB62FCE0F868FFF752FFC9
:10756000B861684ABB6932F91330184606F02DFF3E
:10757000F86806F048FFFB681B69BB6297F8233088
:10758000032B07D997F82330072B03D8BB6A43F4A2
:107590000033BB62BB6A23F0F853BB6297F8233019
:1075A000013B1B0603F0F853BA6A1343BB62BA6A85
:1075B000554B1340BB62FB8CC3F30C02BB6A1A43EE
:1075C000FB681A61FB681B6923F00052FB681A61B3
:1075D000FB689A694D4B1340BB62BB681B791A4626
:1075E000BB68DB7B1B0203F4E0631A43BB689B7B35
:1075F0009B0003F004031343BA6A1343BB62BB68E6
:107600005B79012B0DD1BB681B79002B04D0BB6AC1
:1076100023F40063BB620CE0BB6A43F40063BB620B
:1076200007E0BB681B79002B03D0BB6A43F0100353
:10763000BB62FB68BA6A9A61FB681B6923F400535A
:10764000BB62BB68DB795B0303F40052BB6A1A437D
:10765000FB681A61BB685B7A1B04BA68127A1A432A
:10766000FB68DA62FB689B6A43F08802FB689A62F7
:10767000FB689B6A43F44042FB689A62244BBB62FE
:10768000BB6A43F00043BB62BB6A43F44043BB6246
:10769000FB685A6ABB685B7B1B0103F01001BB6887
:1076A0001B7B5B0103F020030B431A43FB685A6208
:1076B000BB689B7A002B05D0FB685B6A43F008022D
:1076C000FB685A62BB68DB7A002B05D0FB685B6AFB
:1076D00043F00102FB685A62BB689B79002B19D00A
:1076E000BB6A43F00053BB6218E000BFF8F60060CD
:1076F0001CF700604CF70060A8F70060CDCCCCCC44
:107700001F85EB51A8F6006000E0FFFFE8F8FFFFDF
:1077100000001F40BB6A23F00053BB62FB685A693C
:10772000BB6A1A43FB685A61FB689B69BB62BB6812
:107730001B7C002B03D0BB6A43F40023BB62BB68F5
:107740005B7C002B03D0BB6A43F48023BB62FB68E5
:10775000BA6A9A61FB6A18463037BD4680BD00BFE1
:1077600080B584B000AF786000BF7B68DB6A03F44B
:10777000E063002BF9D100BF7B685B6903F48003F1
:10778000002BF9D0104BFB60FB6843F00043FB601B
:10779000FB6843F44043FB607B685A69FB681A430B
:1077A0007B685A617B6800229A617868FFF72AFE3D
:1077B000B860064ABB6832F91330184606F014FE6A
:1077C00000BF1037BD4680BD00001F40A8F6006016
:1077D00080B582B000AF78607B68002B02D11D4875
:1077E00003F0CEFB14220021786807F0A8F87B682C
:1077F0004FF4E1321A607B6800221A717B68002224
:107800005A717B6800229A717B680022DA717B686A
:1078100000221A727B6800225A727B6800229A72D8
:107820007B680022DA727B6800225A737B68002230
:107830001A737B6800229A737B680022DA737B6874
:1078400000221A747B6800225A7400BF0837BD46B4
